Archive member included to satisfy reference by file (symbol)

out/lpc4337_m4\libbase.a(cr_startup_lpc43xx.o)
                              (ResetISR)
out/lpc4337_m4\libbase.a(sysinit.o)
                              out/lpc4337_m4\libbase.a(cr_startup_lpc43xx.o) (SystemInit)
out/lpc4337_m4\libdrivers_devices.a(switch.o)
                              out/lpc4337_m4/obj/blinking_switch.o (SwitchesInit)
out/lpc4337_m4\libdrivers_devices.a(led.o)
                              out/lpc4337_m4/obj/blinking_switch.o (LedsInit)
out/lpc4337_m4\libdrivers_devices.a(delay.o)
                              out/lpc4337_m4/obj/blinking_switch.o (DelayMs)
out/lpc4337_m4\libdrivers_microcontroller.a(gpio.o)
                              out/lpc4337_m4\libdrivers_devices.a(switch.o) (GPIOInit)
out/lpc4337_m4\libdrivers_microcontroller.a(systemclock.o)
                              out/lpc4337_m4/obj/blinking_switch.o (SystemClockInit)
out/lpc4337_m4\libchip.a(gpio_18xx_43xx.o)
                              out/lpc4337_m4\libdrivers_microcontroller.a(gpio.o) (Chip_GPIO_Init)
out/lpc4337_m4\libchip.a(chip_18xx_43xx.o)
                              out/lpc4337_m4\libdrivers_devices.a(delay.o) (SystemCoreClock)
out/lpc4337_m4\libchip.a(clock_18xx_43xx.o)
                              out/lpc4337_m4\libchip.a(chip_18xx_43xx.o) (Chip_Clock_GetClockInputHz)
out/lpc4337_m4\libchip.a(fpu_init.o)
                              out/lpc4337_m4\libbase.a(sysinit.o) (fpuInit)
out/lpc4337_m4\libchip.a(sysinit_18xx_43xx.o)
                              out/lpc4337_m4\libdrivers_microcontroller.a(systemclock.o) (Chip_SetupXtalClocking)
c:/nxp/mcuxpressoide_10.3.1_2233/ide/plugins/com.nxp.mcuxpresso.tools.win32_10.3.0.201811011841/tools/bin/../lib/gcc/arm-none-eabi/7.3.1/../../../../arm-none-eabi/lib/thumb/v7e-m/fpv4-sp/softfp\libc.a(lib_a-memset.o)
                              out/lpc4337_m4\libchip.a(clock_18xx_43xx.o) (memset)

Allocating common symbols
Common symbol       size              file

ptr_tec_group_int_func
                    0x4               out/lpc4337_m4\libdrivers_devices.a(switch.o)
ptr_GPIO_int_func   0x20              out/lpc4337_m4\libdrivers_microcontroller.a(gpio.o)
SystemCoreClock     0x4               out/lpc4337_m4\libchip.a(chip_18xx_43xx.o)
ptr_GPIO_group_int_func
                    0x8               out/lpc4337_m4\libdrivers_microcontroller.a(gpio.o)
ptr_tec_int_func    0x10              out/lpc4337_m4\libdrivers_devices.a(switch.o)

Discarded input sections

 .group         0x00000000        0xc out/lpc4337_m4/obj/blinking_switch.o
 .group         0x00000000        0xc out/lpc4337_m4/obj/blinking_switch.o
 .group         0x00000000        0xc out/lpc4337_m4/obj/blinking_switch.o
 .group         0x00000000        0xc out/lpc4337_m4/obj/blinking_switch.o
 .group         0x00000000        0xc out/lpc4337_m4/obj/blinking_switch.o
 .group         0x00000000        0xc out/lpc4337_m4/obj/blinking_switch.o
 .group         0x00000000        0xc out/lpc4337_m4/obj/blinking_switch.o
 .group         0x00000000        0xc out/lpc4337_m4/obj/blinking_switch.o
 .group         0x00000000        0xc out/lpc4337_m4/obj/blinking_switch.o
 .group         0x00000000        0xc out/lpc4337_m4/obj/blinking_switch.o
 .text          0x00000000        0x0 out/lpc4337_m4/obj/blinking_switch.o
 .data          0x00000000        0x0 out/lpc4337_m4/obj/blinking_switch.o
 .bss           0x00000000        0x0 out/lpc4337_m4/obj/blinking_switch.o
 .text.Delay    0x00000000       0x2c out/lpc4337_m4/obj/blinking_switch.o
 .group         0x00000000        0xc out/lpc4337_m4\libbase.a(cr_startup_lpc43xx.o)
 .text          0x00000000        0x0 out/lpc4337_m4\libbase.a(cr_startup_lpc43xx.o)
 .data          0x00000000        0x0 out/lpc4337_m4\libbase.a(cr_startup_lpc43xx.o)
 .bss           0x00000000        0x0 out/lpc4337_m4\libbase.a(cr_startup_lpc43xx.o)
Memory Configuration

Name             Origin             Length             Attributes
MFlashA512       0x1a000000         0x00080000         xr
MFlashB512       0x1b000000         0x00080000         xr
RamLoc32         0x10000000         0x00008000         xrw
RamLoc40         0x10080000         0x0000a000         xrw
RamAHB32         0x20000000         0x00008000         xrw
RamAHB16         0x20008000         0x00004000         xrw
RamAHB_ETB16     0x2000c000         0x00004000         xrw
*default*        0x00000000         0xffffffff

Linker script and memory map

LOAD out/lpc4337_m4/obj/blinking_switch.o
LOAD out/lpc4337_m4\libbase.a
LOAD out/lpc4337_m4\libdrivers_devices.a
LOAD out/lpc4337_m4\libdrivers_microcontroller.a
LOAD out/lpc4337_m4\libchip.a
START GROUP
LOAD c:/nxp/mcuxpressoide_10.3.1_2233/ide/plugins/com.nxp.mcuxpresso.tools.win32_10.3.0.201811011841/tools/bin/../lib/gcc/arm-none-eabi/7.3.1/thumb/v7e-m/fpv4-sp/softfp\libgcc.a
LOAD c:/nxp/mcuxpressoide_10.3.1_2233/ide/plugins/com.nxp.mcuxpresso.tools.win32_10.3.0.201811011841/tools/bin/../lib/gcc/arm-none-eabi/7.3.1/../../../../arm-none-eabi/lib/thumb/v7e-m/fpv4-sp/softfp\libc.a
LOAD c:/nxp/mcuxpressoide_10.3.1_2233/ide/plugins/com.nxp.mcuxpresso.tools.win32_10.3.0.201811011841/tools/bin/../lib/gcc/arm-none-eabi/7.3.1/../../../../arm-none-eabi/lib/thumb/v7e-m/fpv4-sp/softfp\libm.a
END GROUP
                0x1a080000                __top_MFlashA512 = 0x1a080000
                0x1b080000                __top_MFlashB512 = 0x1b080000
                0x10008000                __top_RamLoc32 = 0x10008000
                0x1008a000                __top_RamLoc40 = 0x1008a000
                0x20008000                __top_RamAHB32 = 0x20008000
                0x2000c000                __top_RamAHB16 = 0x2000c000
                0x20010000                __top_RamAHB_ETB16 = 0x20010000

.text_Flash2    0x1b000000        0x0
 FILL mask 0xff
                0x1b000000                __core_m0app_START__ = .
 *(.core_m0app)
 *(.core_m0app.data_*)
 *(.core_m0app.data)
                0x1b000000                __core_m0app_END__ = .
 *(.text_Flash2*)
 *(.text_MFlashB512*)
 *(.text.$Flash2*)
 *(.text.$MFlashB512*)
 *(.rodata.$Flash2*)
 *(.rodata.$MFlashB512*)

.text           0x1a000000     0x1ab4
 FILL mask 0xff
                0x1a000000                __vectors_start__ = ABSOLUTE (.)
 *(.isr_vector)
 .isr_vector    0x1a000000      0x114 out/lpc4337_m4\libbase.a(cr_startup_lpc43xx.o)
                0x1a000000                g_pfnVectors
                0x1a000114                . = ALIGN (0x4)
                0x1a000114                __section_table_start = .
                0x1a000114                __data_section_table = .
                0x1a000114        0x4 LONG 0x1a001ab4 LOADADDR (.data)
                0x1a000118        0x4 LONG 0x10000000 ADDR (.data)
                0x1a00011c        0x4 LONG 0x0 SIZEOF (.data)
                0x1a000120        0x4 LONG 0x1a001ab4 LOADADDR (.data_RAM2)
                0x1a000124        0x4 LONG 0x10080000 ADDR (.data_RAM2)
                0x1a000128        0x4 LONG 0x0 SIZEOF (.data_RAM2)
                0x1a00012c        0x4 LONG 0x1a001ab4 LOADADDR (.data_RAM3)
                0x1a000130        0x4 LONG 0x20000000 ADDR (.data_RAM3)
                0x1a000134        0x4 LONG 0x0 SIZEOF (.data_RAM3)
                0x1a000138        0x4 LONG 0x1a001ab4 LOADADDR (.data_RAM4)
                0x1a00013c        0x4 LONG 0x20008000 ADDR (.data_RAM4)
                0x1a000140        0x4 LONG 0x0 SIZEOF (.data_RAM4)
                0x1a000144        0x4 LONG 0x1a001ab4 LOADADDR (.data_RAM5)
                0x1a000148        0x4 LONG 0x2000c000 ADDR (.data_RAM5)
                0x1a00014c        0x4 LONG 0x0 SIZEOF (.data_RAM5)
                0x1a000150                __data_section_table_end = .
                0x1a000150                __bss_section_table = .
                0x1a000150        0x4 LONG 0x10000000 ADDR (.bss)
                0x1a000154        0x4 LONG 0x34 SIZEOF (.bss)
                0x1a000158        0x4 LONG 0x10080000 ADDR (.bss_RAM2)
                0x1a00015c        0x4 LONG 0x0 SIZEOF (.bss_RAM2)
                0x1a000160        0x4 LONG 0x20000000 ADDR (.bss_RAM3)
                0x1a000164        0x4 LONG 0x0 SIZEOF (.bss_RAM3)
                0x1a000168        0x4 LONG 0x20008000 ADDR (.bss_RAM4)
                0x1a00016c        0x4 LONG 0x0 SIZEOF (.bss_RAM4)
                0x1a000170        0x4 LONG 0x2000c000 ADDR (.bss_RAM5)
                0x1a000174        0x4 LONG 0x0 SIZEOF (.bss_RAM5)
                0x1a000178                __bss_section_table_end = .
                0x1a000178                __section_table_end = .
 *(.after_vectors*)
 .after_vectors
                0x1a000178       0xb8 out/lpc4337_m4\libbase.a(cr_startup_lpc43xx.o)
                0x1a000178                data_init
                0x1a0001bc                bss_init
                0x1a0001f4                NMI_Handler
                0x1a0001fa                HardFault_Handler
                0x1a000200                MemManage_Handler
                0x1a000206                BusFault_Handler
                0x1a00020c                UsageFault_Handler
                0x1a000212                SVC_Handler
                0x1a000218                DebugMon_Handler
                0x1a00021e                PendSV_Handler
                0x1a000224                SysTick_Handler
                0x1a00022a                ATIMER_IRQHandler
                0x1a00022a                I2C1_IRQHandler
                0x1a00022a                UART1_IRQHandler
                0x1a00022a                CAN1_IRQHandler
                0x1a00022a                USB1_IRQHandler
                0x1a00022a                I2S0_IRQHandler
                0x1a00022a                TIMER3_IRQHandler
                0x1a00022a                UART0_IRQHandler
                0x1a00022a                I2C0_IRQHandler
                0x1a00022a                FLASH_EEPROM_IRQHandler
                0x1a00022a                ADC0_IRQHandler
                0x1a00022a                ADCHS_IRQHandler
                0x1a00022a                IntDefaultHandler
                0x1a00022a                SSP0_IRQHandler
                0x1a00022a                ADC1_IRQHandler
                0x1a00022a                RTC_IRQHandler
                0x1a00022a                TIMER0_IRQHandler
                0x1a00022a                SPI_IRQHandler
                0x1a00022a                LCD_IRQHandler
                0x1a00022a                RIT_IRQHandler
                0x1a00022a                TIMER1_IRQHandler
                0x1a00022a                UART2_IRQHandler
                0x1a00022a                I2S1_IRQHandler
                0x1a00022a                SSP1_IRQHandler
                0x1a00022a                USB0_IRQHandler
                0x1a00022a                SCT_IRQHandler
                0x1a00022a                SDIO_IRQHandler
                0x1a00022a                WDT_IRQHandler
                0x1a00022a                SGPIO_IRQHandler
                0x1a00022a                SPIFI_IRQHandler
                0x1a00022a                QEI_IRQHandler
                0x1a00022a                ETH_IRQHandler
                0x1a00022a                CAN0_IRQHandler
                0x1a00022a                DAC_IRQHandler
                0x1a00022a                M0SUB_IRQHandler
                0x1a00022a                DMA_IRQHandler
                0x1a00022a                EVRT_IRQHandler
                0x1a00022a                TIMER2_IRQHandler
                0x1a00022a                UART3_IRQHandler
                0x1a00022a                MCPWM_IRQHandler
                0x1a00022a                M0APP_IRQHandler
                0x000002fc                . = 0x2fc
 *fill*         0x1a000230       0xcc ff
                0x1a0002fc                PROVIDE (__CRP_WORD_START__ = .)
 *(.crp)
 .crp           0x1a0002fc        0x4 out/lpc4337_m4\libbase.a(cr_startup_lpc43xx.o)
                0x1a0002fc                CRP_WORD
                0x1a000300                PROVIDE (__CRP_WORD_END__ = .)
                0x00000001                ASSERT (! ((__CRP_WORD_START__ == __CRP_WORD_END__)), Linker CRP Enabled, but no CRP_WORD provided within application)
 *(.text*)
 .text.main     0x1a000300       0xe8 out/lpc4337_m4/obj/blinking_switch.o
                0x1a000300                main
 .text.ResetISR
                0x1a0003e8       0xc4 out/lpc4337_m4\libbase.a(cr_startup_lpc43xx.o)
                0x1a0003e8                ResetISR
 .text.SystemInit
                0x1a0004ac       0x28 out/lpc4337_m4\libbase.a(sysinit.o)
                0x1a0004ac                SystemInit
 .text.SwitchesInit
                0x1a0004d4       0x2a out/lpc4337_m4\libdrivers_devices.a(switch.o)
                0x1a0004d4                SwitchesInit
 .text.SwitchesRead
                0x1a0004fe       0x7e out/lpc4337_m4\libdrivers_devices.a(switch.o)
                0x1a0004fe                SwitchesRead
 .text.LedsInit
                0x1a00057c       0x5e out/lpc4337_m4\libdrivers_devices.a(led.o)
                0x1a00057c                LedsInit
 *fill*         0x1a0005da        0x2 ff
 .text.LedOn    0x1a0005dc       0xf0 out/lpc4337_m4\libdrivers_devices.a(led.o)
                0x1a0005dc                LedOn
 .text.LedOff   0x1a0006cc       0xf0 out/lpc4337_m4\libdrivers_devices.a(led.o)
                0x1a0006cc                LedOff
 .text.DelayMs  0x1a0007bc       0x64 out/lpc4337_m4\libdrivers_devices.a(delay.o)
                0x1a0007bc                DelayMs
 .text.Chip_SCU_PinMuxSet
                0x1a000820       0x34 out/lpc4337_m4\libdrivers_microcontroller.a(gpio.o)
 .text.Chip_GPIO_SetPinState
                0x1a000854       0x38 out/lpc4337_m4\libdrivers_microcontroller.a(gpio.o)
 .text.Chip_GPIO_ReadPortBit
                0x1a00088c       0x34 out/lpc4337_m4\libdrivers_microcontroller.a(gpio.o)
 .text.Chip_GPIO_SetPinOutHigh
                0x1a0008c0       0x32 out/lpc4337_m4\libdrivers_microcontroller.a(gpio.o)
 .text.Chip_GPIO_SetPinOutLow
                0x1a0008f2       0x32 out/lpc4337_m4\libdrivers_microcontroller.a(gpio.o)
 .text.Chip_PININT_ClearIntStatus
                0x1a000924       0x1c out/lpc4337_m4\libdrivers_microcontroller.a(gpio.o)
 .text.Chip_GPIOGP_ClearIntStatus
                0x1a000940       0x34 out/lpc4337_m4\libdrivers_microcontroller.a(gpio.o)
 .text.GPIOInit
                0x1a000974       0xc8 out/lpc4337_m4\libdrivers_microcontroller.a(gpio.o)
                0x1a000974                GPIOInit
 .text.GPIOOn   0x1a000a3c       0x48 out/lpc4337_m4\libdrivers_microcontroller.a(gpio.o)
                0x1a000a3c                GPIOOn
 .text.GPIOOff  0x1a000a84       0x48 out/lpc4337_m4\libdrivers_microcontroller.a(gpio.o)
                0x1a000a84                GPIOOff
 .text.GPIORead
                0x1a000acc       0x4c out/lpc4337_m4\libdrivers_microcontroller.a(gpio.o)
                0x1a000acc                GPIORead
 .text.GPIO0_IRQHandler
                0x1a000b18       0x20 out/lpc4337_m4\libdrivers_microcontroller.a(gpio.o)
                0x1a000b18                GPIO0_IRQHandler
 .text.GPIO1_IRQHandler
                0x1a000b38       0x20 out/lpc4337_m4\libdrivers_microcontroller.a(gpio.o)
                0x1a000b38                GPIO1_IRQHandler
 .text.GPIO2_IRQHandler
                0x1a000b58       0x20 out/lpc4337_m4\libdrivers_microcontroller.a(gpio.o)
                0x1a000b58                GPIO2_IRQHandler
 .text.GPIO3_IRQHandler
                0x1a000b78       0x20 out/lpc4337_m4\libdrivers_microcontroller.a(gpio.o)
                0x1a000b78                GPIO3_IRQHandler
 .text.GPIO4_IRQHandler
                0x1a000b98       0x20 out/lpc4337_m4\libdrivers_microcontroller.a(gpio.o)
                0x1a000b98                GPIO4_IRQHandler
 .text.GPIO5_IRQHandler
                0x1a000bb8       0x20 out/lpc4337_m4\libdrivers_microcontroller.a(gpio.o)
                0x1a000bb8                GPIO5_IRQHandler
 .text.GPIO6_IRQHandler
                0x1a000bd8       0x20 out/lpc4337_m4\libdrivers_microcontroller.a(gpio.o)
                0x1a000bd8                GPIO6_IRQHandler
 .text.GPIO7_IRQHandler
                0x1a000bf8       0x20 out/lpc4337_m4\libdrivers_microcontroller.a(gpio.o)
                0x1a000bf8                GPIO7_IRQHandler
 .text.GINT0_IRQHandler
                0x1a000c18       0x20 out/lpc4337_m4\libdrivers_microcontroller.a(gpio.o)
                0x1a000c18                GINT0_IRQHandler
 .text.GINT1_IRQHandler
                0x1a000c38       0x20 out/lpc4337_m4\libdrivers_microcontroller.a(gpio.o)
                0x1a000c38                GINT1_IRQHandler
 .text.SystemClockInit
                0x1a000c58       0x10 out/lpc4337_m4\libdrivers_microcontroller.a(systemclock.o)
                0x1a000c58                SystemClockInit
 .text.Chip_GPIO_SetPinDIROutput
                0x1a000c68       0x3e out/lpc4337_m4\libchip.a(gpio_18xx_43xx.o)
 .text.Chip_GPIO_SetPinDIRInput
                0x1a000ca6       0x40 out/lpc4337_m4\libchip.a(gpio_18xx_43xx.o)
 .text.Chip_GPIO_Init
                0x1a000ce6       0x14 out/lpc4337_m4\libchip.a(gpio_18xx_43xx.o)
                0x1a000ce6                Chip_GPIO_Init
 .text.Chip_GPIO_SetPinDIR
                0x1a000cfa       0x42 out/lpc4337_m4\libchip.a(gpio_18xx_43xx.o)
                0x1a000cfa                Chip_GPIO_SetPinDIR
 .text.SystemCoreClockUpdate
                0x1a000d3c       0x18 out/lpc4337_m4\libchip.a(chip_18xx_43xx.o)
                0x1a000d3c                SystemCoreClockUpdate
 .text.ABS      0x1a000d54       0x22 out/lpc4337_m4\libchip.a(clock_18xx_43xx.o)
 *fill*         0x1a000d76        0x2 ff
 .text.pll_calc_divs
                0x1a000d78      0x124 out/lpc4337_m4\libchip.a(clock_18xx_43xx.o)
 .text.pll_get_frac
                0x1a000e9c      0x176 out/lpc4337_m4\libchip.a(clock_18xx_43xx.o)
 .text.Chip_Clock_GetDivRate
                0x1a001012       0x40 out/lpc4337_m4\libchip.a(clock_18xx_43xx.o)
 *fill*         0x1a001052        0x2 ff
 .text.Chip_Clock_FindBaseClock
                0x1a001054       0x90 out/lpc4337_m4\libchip.a(clock_18xx_43xx.o)
 .text.Chip_Clock_EnableCrystal
                0x1a0010e4       0x70 out/lpc4337_m4\libchip.a(clock_18xx_43xx.o)
                0x1a0010e4                Chip_Clock_EnableCrystal
 .text.Chip_Clock_CalcMainPLLValue
                0x1a001154       0xd8 out/lpc4337_m4\libchip.a(clock_18xx_43xx.o)
                0x1a001154                Chip_Clock_CalcMainPLLValue
 .text.Chip_Clock_GetMainPLLHz
                0x1a00122c       0xc0 out/lpc4337_m4\libchip.a(clock_18xx_43xx.o)
                0x1a00122c                Chip_Clock_GetMainPLLHz
 .text.Chip_Clock_GetDividerSource
                0x1a0012ec       0x40 out/lpc4337_m4\libchip.a(clock_18xx_43xx.o)
                0x1a0012ec                Chip_Clock_GetDividerSource
 .text.Chip_Clock_GetDividerDivisor
                0x1a00132c       0x38 out/lpc4337_m4\libchip.a(clock_18xx_43xx.o)
                0x1a00132c                Chip_Clock_GetDividerDivisor
 .text.Chip_Clock_GetClockInputHz
                0x1a001364      0x140 out/lpc4337_m4\libchip.a(clock_18xx_43xx.o)
                0x1a001364                Chip_Clock_GetClockInputHz
 .text.Chip_Clock_GetBaseClocktHz
                0x1a0014a4       0x24 out/lpc4337_m4\libchip.a(clock_18xx_43xx.o)
                0x1a0014a4                Chip_Clock_GetBaseClocktHz
 .text.Chip_Clock_SetBaseClock
                0x1a0014c8       0x9c out/lpc4337_m4\libchip.a(clock_18xx_43xx.o)
                0x1a0014c8                Chip_Clock_SetBaseClock
 .text.Chip_Clock_GetBaseClock
                0x1a001564       0x4c out/lpc4337_m4\libchip.a(clock_18xx_43xx.o)
                0x1a001564                Chip_Clock_GetBaseClock
 .text.Chip_Clock_GetRate
                0x1a0015b0       0x88 out/lpc4337_m4\libchip.a(clock_18xx_43xx.o)
                0x1a0015b0                Chip_Clock_GetRate
 .text.fpuInit  0x1a001638       0x74 out/lpc4337_m4\libchip.a(fpu_init.o)
                0x1a001638                fpuInit
 .text.Chip_Clock_DisableMainPLL
                0x1a0016ac       0x20 out/lpc4337_m4\libchip.a(sysinit_18xx_43xx.o)
 .text.Chip_Clock_SetupMainPLL
                0x1a0016cc       0x44 out/lpc4337_m4\libchip.a(sysinit_18xx_43xx.o)
 .text.Chip_Clock_MainPLLLocked
                0x1a001710       0x24 out/lpc4337_m4\libchip.a(sysinit_18xx_43xx.o)
 .text.Chip_SetupCoreClock
                0x1a001734      0x15c out/lpc4337_m4\libchip.a(sysinit_18xx_43xx.o)
                0x1a001734                Chip_SetupCoreClock
 .text.Chip_SetupXtalClocking
                0x1a001890       0x18 out/lpc4337_m4\libchip.a(sysinit_18xx_43xx.o)
                0x1a001890                Chip_SetupXtalClocking
 .text.Chip_SetupIrcClocking
                0x1a0018a8       0x18 out/lpc4337_m4\libchip.a(sysinit_18xx_43xx.o)
                0x1a0018a8                Chip_SetupIrcClocking
 .text.Chip_SystemInit
                0x1a0018c0        0xc out/lpc4337_m4\libchip.a(sysinit_18xx_43xx.o)
                0x1a0018c0                Chip_SystemInit
 .text.memset   0x1a0018cc       0x94 c:/nxp/mcuxpressoide_10.3.1_2233/ide/plugins/com.nxp.mcuxpresso.tools.win32_10.3.0.201811011841/tools/bin/../lib/gcc/arm-none-eabi/7.3.1/../../../../arm-none-eabi/lib/thumb/v7e-m/fpv4-sp/softfp\libc.a(lib_a-memset.o)
                0x1a0018cc                memset
 *(.rodata .rodata.* .constdata .constdata.*)
 .rodata.ExtRateIn
                0x1a001960        0x4 out/lpc4337_m4\libbase.a(sysinit.o)
                0x1a001960                ExtRateIn
 .rodata.OscRateIn
                0x1a001964        0x4 out/lpc4337_m4\libbase.a(sysinit.o)
                0x1a001964                OscRateIn
 .rodata.gpio   0x1a001968       0x8a out/lpc4337_m4\libdrivers_microcontroller.a(gpio.o)
                0x1a001968                gpio
 *fill*         0x1a0019f2        0x2 ff
 .rodata.periph_to_base
                0x1a0019f4       0x6c out/lpc4337_m4\libchip.a(clock_18xx_43xx.o)
 .rodata        0x1a001a60        0xa out/lpc4337_m4\libchip.a(clock_18xx_43xx.o)
 *fill*         0x1a001a6a        0x2 ff
 .rodata.InitClkStates
                0x1a001a6c       0x48 out/lpc4337_m4\libchip.a(sysinit_18xx_43xx.o)
                0x1a001ab4                . = ALIGN (0x4)

.glue_7         0x1a001ab4        0x0
 .glue_7        0x1a001ab4        0x0 linker stubs

.glue_7t        0x1a001ab4        0x0
 .glue_7t       0x1a001ab4        0x0 linker stubs

.vfp11_veneer   0x1a001ab4        0x0
 .vfp11_veneer  0x1a001ab4        0x0 linker stubs

.v4_bx          0x1a001ab4        0x0
 .v4_bx         0x1a001ab4        0x0 linker stubs

.iplt           0x1a001ab4        0x0
 .iplt          0x1a001ab4        0x0 out/lpc4337_m4/obj/blinking_switch.o

.rel.dyn        0x1a001ab4        0x0
 .rel.iplt      0x1a001ab4        0x0 out/lpc4337_m4/obj/blinking_switch.o

.ARM.extab
 *(.ARM.extab* .gnu.linkonce.armextab.*)
                0x1a001ab4                __exidx_start = .

.ARM.exidx
 *(.ARM.exidx* .gnu.linkonce.armexidx.*)
                0x1a001ab4                __exidx_end = .
                0x1a001ab4                _etext = .

.data_RAM2      0x10080000        0x0 load address 0x1a001ab4
 FILL mask 0xff
                [!provide]                PROVIDE (__start_data_RAM2 = .)
 *(.ramfunc.$RAM2)
 *(.ramfunc.$RamLoc40)
 *(.data.$RAM2*)
 *(.data.$RamLoc40*)
                0x10080000                . = ALIGN (0x4)
                [!provide]                PROVIDE (__end_data_RAM2 = .)

.data_RAM3      0x20000000        0x0 load address 0x1a001ab4
 FILL mask 0xff
                [!provide]                PROVIDE (__start_data_RAM3 = .)
 *(.ramfunc.$RAM3)
 *(.ramfunc.$RamAHB32)
 *(.data.$RAM3*)
 *(.data.$RamAHB32*)
                0x20000000                . = ALIGN (0x4)
                [!provide]                PROVIDE (__end_data_RAM3 = .)

.data_RAM4      0x20008000        0x0 load address 0x1a001ab4
 FILL mask 0xff
                [!provide]                PROVIDE (__start_data_RAM4 = .)
 *(.ramfunc.$RAM4)
 *(.ramfunc.$RamAHB16)
 *(.data.$RAM4*)
 *(.data.$RamAHB16*)
                0x20008000                . = ALIGN (0x4)
                [!provide]                PROVIDE (__end_data_RAM4 = .)

.data_RAM5      0x2000c000        0x0 load address 0x1a001ab4
 FILL mask 0xff
                [!provide]                PROVIDE (__start_data_RAM5 = .)
 *(.ramfunc.$RAM5)
 *(.ramfunc.$RamAHB_ETB16)
 *(.data.$RAM5*)
 *(.data.$RamAHB_ETB16*)
                0x2000c000                . = ALIGN (0x4)
                [!provide]                PROVIDE (__end_data_RAM5 = .)

.uninit_RESERVED
                0x10000000        0x0
 *(.bss.$RESERVED*)
                0x10000000                . = ALIGN (0x4)
                0x10000000                _end_uninit_RESERVED = .

.data           0x10000000        0x0 load address 0x1a001ab4
 FILL mask 0xff
                0x10000000                _data = .
 *(vtable)
 *(.ramfunc*)
 *(.data*)
                0x10000000                . = ALIGN (0x4)
                0x10000000                _edata = .

.igot.plt       0x10000000        0x0 load address 0x1a001ab4
 .igot.plt      0x10000000        0x0 out/lpc4337_m4/obj/blinking_switch.o

.bss_RAM2       0x10080000        0x0
                [!provide]                PROVIDE (__start_bss_RAM2 = .)
 *(.bss.$RAM2*)
 *(.bss.$RamLoc40*)
                0x10080000                . = ALIGN (0x4)
                [!provide]                PROVIDE (__end_bss_RAM2 = .)

.bss_RAM3       0x20000000        0x0
                [!provide]                PROVIDE (__start_bss_RAM3 = .)
 *(.bss.$RAM3*)
 *(.bss.$RamAHB32*)
                0x20000000                . = ALIGN (0x4)
                [!provide]                PROVIDE (__end_bss_RAM3 = .)

.bss_RAM4       0x20008000        0x0
                [!provide]                PROVIDE (__start_bss_RAM4 = .)
 *(.bss.$RAM4*)
 *(.bss.$RamAHB16*)
                0x20008000                . = ALIGN (0x4)
                [!provide]                PROVIDE (__end_bss_RAM4 = .)

.bss_RAM5       0x2000c000        0x0
                [!provide]                PROVIDE (__start_bss_RAM5 = .)
 *(.bss.$RAM5*)
 *(.bss.$RamAHB_ETB16*)
                0x2000c000                . = ALIGN (0x4)
                [!provide]                PROVIDE (__end_bss_RAM5 = .)

.bss            0x10000000       0x34
                0x10000000                _bss = .
 *(.bss*)
 .bss.audio_usb_pll_freq
                0x10000000        0x8 out/lpc4337_m4\libchip.a(clock_18xx_43xx.o)
 *(COMMON)
 COMMON         0x10000008       0x28 out/lpc4337_m4\libdrivers_microcontroller.a(gpio.o)
                0x10000008                ptr_GPIO_int_func
                0x10000028                ptr_GPIO_group_int_func
 COMMON         0x10000030        0x4 out/lpc4337_m4\libchip.a(chip_18xx_43xx.o)
                0x10000030                SystemCoreClock
                0x10000034                . = ALIGN (0x4)
                0x10000034                _ebss = .
                [!provide]                PROVIDE (end = .)

.noinit_RAM2    0x10080000        0x0
 *(.noinit.$RAM2*)
 *(.noinit.$RamLoc40*)
                0x10080000                . = ALIGN (0x4)

.noinit_RAM3    0x20000000        0x0
 *(.noinit.$RAM3*)
 *(.noinit.$RamAHB32*)
                0x20000000                . = ALIGN (0x4)

.noinit_RAM4    0x20008000        0x0
 *(.noinit.$RAM4*)
 *(.noinit.$RamAHB16*)
                0x20008000                . = ALIGN (0x4)

.noinit_RAM5    0x2000c000        0x0
 *(.noinit.$RAM5*)
 *(.noinit.$RamAHB_ETB16*)
                0x2000c000                . = ALIGN (0x4)

.noinit         0x10000034        0x0
                0x10000034                _noinit = .
 *(.noinit*)
                0x10000034                . = ALIGN (0x4)
                0x10000034                _end_noinit = .
                [!provide]                PROVIDE (_pvHeapStart = DEFINED (__user_heap_base)?__user_heap_base:.)
                0x10007fe0                PROVIDE (_vStackTop = DEFINED (__user_stack_top)?__user_stack_top:(__top_RamLoc32 - 0x20))
                [!provide]                PROVIDE (__valid_user_code_checksum = (0x0 - ((((((_vStackTop + (ResetISR + 0x1)) + (NMI_Handler + 0x1)) + (HardFault_Handler + 0x1)) + (DEFINED (MemManage_Handler)?MemManage_Handler:0x0 + 0x1)) + (DEFINED (BusFault_Handler)?BusFault_Handler:0x0 + 0x1)) + (DEFINED (UsageFault_Handler)?UsageFault_Handler:0x0 + 0x1))))
OUTPUT(out/lpc4337_m4/1_blinking_switch.axf elf32-littlearm)

.debug_info     0x00000000     0x55fc
 .debug_info    0x00000000      0x142 out/lpc4337_m4/obj/blinking_switch.o
 .debug_info    0x00000142      0x2af out/lpc4337_m4\libbase.a(cr_startup_lpc43xx.o)
 .debug_info    0x000003f1      0x5db out/lpc4337_m4\libbase.a(sysinit.o)
 .debug_info    0x000009cc      0x2e8 out/lpc4337_m4\libdrivers_devices.a(switch.o)
 .debug_info    0x00000cb4      0x262 out/lpc4337_m4\libdrivers_devices.a(led.o)
 .debug_info    0x00000f16      0x220 out/lpc4337_m4\libdrivers_devices.a(delay.o)
 .debug_info    0x00001136     0x14ff out/lpc4337_m4\libdrivers_microcontroller.a(gpio.o)
 .debug_info    0x00002635       0xf2 out/lpc4337_m4\libdrivers_microcontroller.a(systemclock.o)
 .debug_info    0x00002727      0x453 out/lpc4337_m4\libchip.a(gpio_18xx_43xx.o)
 .debug_info    0x00002b7a      0xa61 out/lpc4337_m4\libchip.a(chip_18xx_43xx.o)
 .debug_info    0x000035db     0x15af out/lpc4337_m4\libchip.a(clock_18xx_43xx.o)
 .debug_info    0x00004b8a      0x137 out/lpc4337_m4\libchip.a(fpu_init.o)
 .debug_info    0x00004cc1      0x93b out/lpc4337_m4\libchip.a(sysinit_18xx_43xx.o)

.debug_abbrev   0x00000000     0x1058
 .debug_abbrev  0x00000000       0xa8 out/lpc4337_m4/obj/blinking_switch.o
 .debug_abbrev  0x000000a8      0x11d out/lpc4337_m4\libbase.a(cr_startup_lpc43xx.o)
 .debug_abbrev  0x000001c5       0xe4 out/lpc4337_m4\libbase.a(sysinit.o)
 .debug_abbrev  0x000002a9      0x123 out/lpc4337_m4\libdrivers_devices.a(switch.o)
 .debug_abbrev  0x000003cc       0xca out/lpc4337_m4\libdrivers_devices.a(led.o)
 .debug_abbrev  0x00000496       0xf7 out/lpc4337_m4\libdrivers_devices.a(delay.o)
 .debug_abbrev  0x0000058d      0x2ae out/lpc4337_m4\libdrivers_microcontroller.a(gpio.o)
 .debug_abbrev  0x0000083b       0x82 out/lpc4337_m4\libdrivers_microcontroller.a(systemclock.o)
 .debug_abbrev  0x000008bd      0x13f out/lpc4337_m4\libchip.a(gpio_18xx_43xx.o)
 .debug_abbrev  0x000009fc      0x166 out/lpc4337_m4\libchip.a(chip_18xx_43xx.o)
 .debug_abbrev  0x00000b62      0x2cf out/lpc4337_m4\libchip.a(clock_18xx_43xx.o)
 .debug_abbrev  0x00000e31       0x84 out/lpc4337_m4\libchip.a(fpu_init.o)
 .debug_abbrev  0x00000eb5      0x1a3 out/lpc4337_m4\libchip.a(sysinit_18xx_43xx.o)

.debug_aranges  0x00000000      0x530
 .debug_aranges
                0x00000000       0x28 out/lpc4337_m4/obj/blinking_switch.o
 .debug_aranges
                0x00000028       0x80 out/lpc4337_m4\libbase.a(cr_startup_lpc43xx.o)
 .debug_aranges
                0x000000a8       0x20 out/lpc4337_m4\libbase.a(sysinit.o)
 .debug_aranges
                0x000000c8       0x38 out/lpc4337_m4\libdrivers_devices.a(switch.o)
 .debug_aranges
                0x00000100       0x48 out/lpc4337_m4\libdrivers_devices.a(led.o)
 .debug_aranges
                0x00000148       0x30 out/lpc4337_m4\libdrivers_devices.a(delay.o)
 .debug_aranges
                0x00000178      0x148 out/lpc4337_m4\libdrivers_microcontroller.a(gpio.o)
 .debug_aranges
                0x000002c0       0x20 out/lpc4337_m4\libdrivers_microcontroller.a(systemclock.o)
 .debug_aranges
                0x000002e0       0x68 out/lpc4337_m4\libchip.a(gpio_18xx_43xx.o)
 .debug_aranges
                0x00000348       0x40 out/lpc4337_m4\libchip.a(chip_18xx_43xx.o)
 .debug_aranges
                0x00000388      0x138 out/lpc4337_m4\libchip.a(clock_18xx_43xx.o)
 .debug_aranges
                0x000004c0       0x20 out/lpc4337_m4\libchip.a(fpu_init.o)
 .debug_aranges
                0x000004e0       0x50 out/lpc4337_m4\libchip.a(sysinit_18xx_43xx.o)

.debug_ranges   0x00000000      0x478
 .debug_ranges  0x00000000       0x18 out/lpc4337_m4/obj/blinking_switch.o
 .debug_ranges  0x00000018       0x70 out/lpc4337_m4\libbase.a(cr_startup_lpc43xx.o)
 .debug_ranges  0x00000088       0x10 out/lpc4337_m4\libbase.a(sysinit.o)
 .debug_ranges  0x00000098       0x28 out/lpc4337_m4\libdrivers_devices.a(switch.o)
 .debug_ranges  0x000000c0       0x38 out/lpc4337_m4\libdrivers_devices.a(led.o)
 .debug_ranges  0x000000f8       0x20 out/lpc4337_m4\libdrivers_devices.a(delay.o)
 .debug_ranges  0x00000118      0x138 out/lpc4337_m4\libdrivers_microcontroller.a(gpio.o)
 .debug_ranges  0x00000250       0x10 out/lpc4337_m4\libdrivers_microcontroller.a(systemclock.o)
 .debug_ranges  0x00000260       0x58 out/lpc4337_m4\libchip.a(gpio_18xx_43xx.o)
 .debug_ranges  0x000002b8       0x30 out/lpc4337_m4\libchip.a(chip_18xx_43xx.o)
 .debug_ranges  0x000002e8      0x140 out/lpc4337_m4\libchip.a(clock_18xx_43xx.o)
 .debug_ranges  0x00000428       0x10 out/lpc4337_m4\libchip.a(fpu_init.o)
 .debug_ranges  0x00000438       0x40 out/lpc4337_m4\libchip.a(sysinit_18xx_43xx.o)

.debug_macro    0x00000000     0x604b
 .debug_macro   0x00000000       0xa8 out/lpc4337_m4/obj/blinking_switch.o
 .debug_macro   0x000000a8      0xa84 out/lpc4337_m4/obj/blinking_switch.o
 .debug_macro   0x00000b2c       0x16 out/lpc4337_m4/obj/blinking_switch.o
 .debug_macro   0x00000b42       0x22 out/lpc4337_m4/obj/blinking_switch.o
 .debug_macro   0x00000b64       0x22 out/lpc4337_m4/obj/blinking_switch.o
 .debug_macro   0x00000b86       0x8e out/lpc4337_m4/obj/blinking_switch.o
 .debug_macro   0x00000c14       0x51 out/lpc4337_m4/obj/blinking_switch.o
 .debug_macro   0x00000c65       0xef out/lpc4337_m4/obj/blinking_switch.o
 .debug_macro   0x00000d54       0x6a out/lpc4337_m4/obj/blinking_switch.o
 .debug_macro   0x00000dbe      0x1df out/lpc4337_m4/obj/blinking_switch.o
 .debug_macro   0x00000f9d       0x10 out/lpc4337_m4/obj/blinking_switch.o
 .debug_macro   0x00000fad       0x23 out/lpc4337_m4\libbase.a(cr_startup_lpc43xx.o)
 .debug_macro   0x00000fd0      0x307 out/lpc4337_m4\libbase.a(sysinit.o)
 .debug_macro   0x000012d7       0x10 out/lpc4337_m4\libbase.a(sysinit.o)
 .debug_macro   0x000012e7       0x22 out/lpc4337_m4\libbase.a(sysinit.o)
 .debug_macro   0x00001309       0x7b out/lpc4337_m4\libbase.a(sysinit.o)
 .debug_macro   0x00001384       0x28 out/lpc4337_m4\libbase.a(sysinit.o)
 .debug_macro   0x000013ac       0x3b out/lpc4337_m4\libbase.a(sysinit.o)
 .debug_macro   0x000013e7       0x2d out/lpc4337_m4\libbase.a(sysinit.o)
 .debug_macro   0x00001414       0x42 out/lpc4337_m4\libbase.a(sysinit.o)
 .debug_macro   0x00001456      0xd39 out/lpc4337_m4\libbase.a(sysinit.o)
 .debug_macro   0x0000218f      0x2bc out/lpc4337_m4\libbase.a(sysinit.o)
 .debug_macro   0x0000244b      0x112 out/lpc4337_m4\libbase.a(sysinit.o)
 .debug_macro   0x0000255d       0x11 out/lpc4337_m4\libbase.a(sysinit.o)
 .debug_macro   0x0000256e       0x2a out/lpc4337_m4\libbase.a(sysinit.o)
 .debug_macro   0x00002598       0x16 out/lpc4337_m4\libbase.a(sysinit.o)
 .debug_macro   0x000025ae      0x2e6 out/lpc4337_m4\libbase.a(sysinit.o)
 .debug_macro   0x00002894       0x82 out/lpc4337_m4\libbase.a(sysinit.o)
 .debug_macro   0x00002916      0x13d out/lpc4337_m4\libbase.a(sysinit.o)
 .debug_macro   0x00002a53      0x198 out/lpc4337_m4\libbase.a(sysinit.o)
 .debug_macro   0x00002beb       0x34 out/lpc4337_m4\libbase.a(sysinit.o)
 .debug_macro   0x00002c1f       0x58 out/lpc4337_m4\libbase.a(sysinit.o)
 .debug_macro   0x00002c77      0x236 out/lpc4337_m4\libbase.a(sysinit.o)
 .debug_macro   0x00002ead      0x572 out/lpc4337_m4\libbase.a(sysinit.o)
 .debug_macro   0x0000341f       0x16 out/lpc4337_m4\libbase.a(sysinit.o)
 .debug_macro   0x00003435      0x18a out/lpc4337_m4\libbase.a(sysinit.o)
 .debug_macro   0x000035bf       0x88 out/lpc4337_m4\libbase.a(sysinit.o)
 .debug_macro   0x00003647      0x1b9 out/lpc4337_m4\libbase.a(sysinit.o)
 .debug_macro   0x00003800      0x1da out/lpc4337_m4\libbase.a(sysinit.o)
 .debug_macro   0x000039da       0x40 out/lpc4337_m4\libbase.a(sysinit.o)
 .debug_macro   0x00003a1a       0x1c out/lpc4337_m4\libbase.a(sysinit.o)
 .debug_macro   0x00003a36       0x2e out/lpc4337_m4\libbase.a(sysinit.o)
 .debug_macro   0x00003a64       0x2e out/lpc4337_m4\libbase.a(sysinit.o)
 .debug_macro   0x00003a92       0x22 out/lpc4337_m4\libbase.a(sysinit.o)
 .debug_macro   0x00003ab4      0x201 out/lpc4337_m4\libbase.a(sysinit.o)
 .debug_macro   0x00003cb5       0xe0 out/lpc4337_m4\libbase.a(sysinit.o)
 .debug_macro   0x00003d95      0x34c out/lpc4337_m4\libbase.a(sysinit.o)
 .debug_macro   0x000040e1       0xdc out/lpc4337_m4\libbase.a(sysinit.o)
 .debug_macro   0x000041bd       0xc4 out/lpc4337_m4\libbase.a(sysinit.o)
 .debug_macro   0x00004281       0x94 out/lpc4337_m4\libbase.a(sysinit.o)
 .debug_macro   0x00004315       0xb8 out/lpc4337_m4\libbase.a(sysinit.o)
 .debug_macro   0x000043cd       0x4c out/lpc4337_m4\libbase.a(sysinit.o)
 .debug_macro   0x00004419       0x16 out/lpc4337_m4\libbase.a(sysinit.o)
 .debug_macro   0x0000442f      0x328 out/lpc4337_m4\libbase.a(sysinit.o)
 .debug_macro   0x00004757       0x3a out/lpc4337_m4\libbase.a(sysinit.o)
 .debug_macro   0x00004791       0xd0 out/lpc4337_m4\libbase.a(sysinit.o)
 .debug_macro   0x00004861       0x18 out/lpc4337_m4\libbase.a(sysinit.o)
 .debug_macro   0x00004879       0x22 out/lpc4337_m4\libbase.a(sysinit.o)
 .debug_macro   0x0000489b       0x40 out/lpc4337_m4\libbase.a(sysinit.o)
 .debug_macro   0x000048db       0x97 out/lpc4337_m4\libdrivers_devices.a(switch.o)
 .debug_macro   0x00004972       0x90 out/lpc4337_m4\libdrivers_devices.a(led.o)
 .debug_macro   0x00004a02      0x32f out/lpc4337_m4\libdrivers_devices.a(delay.o)
 .debug_macro   0x00004d31      0x31f out/lpc4337_m4\libdrivers_microcontroller.a(gpio.o)
 .debug_macro   0x00005050      0x30a out/lpc4337_m4\libdrivers_microcontroller.a(systemclock.o)
 .debug_macro   0x0000535a      0x301 out/lpc4337_m4\libchip.a(gpio_18xx_43xx.o)
 .debug_macro   0x0000565b      0x301 out/lpc4337_m4\libchip.a(chip_18xx_43xx.o)
 .debug_macro   0x0000595c      0x307 out/lpc4337_m4\libchip.a(clock_18xx_43xx.o)
 .debug_macro   0x00005c63       0xe7 out/lpc4337_m4\libchip.a(fpu_init.o)
 .debug_macro   0x00005d4a      0x301 out/lpc4337_m4\libchip.a(sysinit_18xx_43xx.o)

.debug_line     0x00000000     0x571e
 .debug_line    0x00000000      0x3e2 out/lpc4337_m4/obj/blinking_switch.o
 .debug_line    0x000003e2      0x10d out/lpc4337_m4\libbase.a(cr_startup_lpc43xx.o)
 .debug_line    0x000004ef      0x781 out/lpc4337_m4\libbase.a(sysinit.o)
 .debug_line    0x00000c70      0x3b3 out/lpc4337_m4\libdrivers_devices.a(switch.o)
 .debug_line    0x00001023      0x403 out/lpc4337_m4\libdrivers_devices.a(led.o)
 .debug_line    0x00001426      0x7f4 out/lpc4337_m4\libdrivers_devices.a(delay.o)
 .debug_line    0x00001c1a      0xb29 out/lpc4337_m4\libdrivers_microcontroller.a(gpio.o)
 .debug_line    0x00002743      0x7d5 out/lpc4337_m4\libdrivers_microcontroller.a(systemclock.o)
 .debug_line    0x00002f18      0x83d out/lpc4337_m4\libchip.a(gpio_18xx_43xx.o)
 .debug_line    0x00003755      0x7ec out/lpc4337_m4\libchip.a(chip_18xx_43xx.o)
 .debug_line    0x00003f41      0xbeb out/lpc4337_m4\libchip.a(clock_18xx_43xx.o)
 .debug_line    0x00004b2c      0x398 out/lpc4337_m4\libchip.a(fpu_init.o)
 .debug_line    0x00004ec4      0x85a out/lpc4337_m4\libchip.a(sysinit_18xx_43xx.o)

.debug_str      0x00000000    0x1738c
 .debug_str     0x00000000     0x3c5c out/lpc4337_m4/obj/blinking_switch.o
                               0x3dd2 (size before relaxing)
 .debug_str     0x00003c5c      0x226 out/lpc4337_m4\libbase.a(cr_startup_lpc43xx.o)
                               0x2f82 (size before relaxing)
 .debug_str     0x00003e82    0x11d94 out/lpc4337_m4\libbase.a(sysinit.o)
                              0x15ab7 (size before relaxing)
 .debug_str     0x00015c16      0x23f out/lpc4337_m4\libdrivers_devices.a(switch.o)
                               0x3f23 (size before relaxing)
 .debug_str     0x00015e55       0x68 out/lpc4337_m4\libdrivers_devices.a(led.o)
                               0x3e71 (size before relaxing)
 .debug_str     0x00015ebd       0xca out/lpc4337_m4\libdrivers_devices.a(delay.o)
                              0x15121 (size before relaxing)
 .debug_str     0x00015f87      0x81f out/lpc4337_m4\libdrivers_microcontroller.a(gpio.o)
                              0x1648e (size before relaxing)
 .debug_str     0x000167a6       0x4d out/lpc4337_m4\libdrivers_microcontroller.a(systemclock.o)
                              0x150c5 (size before relaxing)
 .debug_str     0x000167f3      0x124 out/lpc4337_m4\libchip.a(gpio_18xx_43xx.o)
                              0x151b3 (size before relaxing)
 .debug_str     0x00016917      0x27c out/lpc4337_m4\libchip.a(chip_18xx_43xx.o)
                              0x15d97 (size before relaxing)
 .debug_str     0x00016b93      0x633 out/lpc4337_m4\libchip.a(clock_18xx_43xx.o)
                              0x16320 (size before relaxing)
 .debug_str     0x000171c6       0xca out/lpc4337_m4\libchip.a(fpu_init.o)
                               0x991c (size before relaxing)
 .debug_str     0x00017290       0xfc out/lpc4337_m4\libchip.a(sysinit_18xx_43xx.o)
                              0x15d76 (size before relaxing)

.comment        0x00000000       0x7f
 .comment       0x00000000       0x7f out/lpc4337_m4/obj/blinking_switch.o
                                 0x80 (size before relaxing)
 .comment       0x0000007f       0x80 out/lpc4337_m4\libbase.a(cr_startup_lpc43xx.o)
 .comment       0x0000007f       0x80 out/lpc4337_m4\libbase.a(sysinit.o)
 .comment       0x0000007f       0x80 out/lpc4337_m4\libdrivers_devices.a(switch.o)
 .comment       0x0000007f       0x80 out/lpc4337_m4\libdrivers_devices.a(led.o)
 .comment       0x0000007f       0x80 out/lpc4337_m4\libdrivers_devices.a(delay.o)
 .comment       0x0000007f       0x80 out/lpc4337_m4\libdrivers_microcontroller.a(gpio.o)
 .comment       0x0000007f       0x80 out/lpc4337_m4\libdrivers_microcontroller.a(systemclock.o)
 .comment       0x0000007f       0x80 out/lpc4337_m4\libchip.a(gpio_18xx_43xx.o)
 .comment       0x0000007f       0x80 out/lpc4337_m4\libchip.a(chip_18xx_43xx.o)
 .comment       0x0000007f       0x80 out/lpc4337_m4\libchip.a(clock_18xx_43xx.o)
 .comment       0x0000007f       0x80 out/lpc4337_m4\libchip.a(fpu_init.o)
 .comment       0x0000007f       0x80 out/lpc4337_m4\libchip.a(sysinit_18xx_43xx.o)

.ARM.attributes
                0x00000000       0x37
 .ARM.attributes
                0x00000000       0x37 out/lpc4337_m4/obj/blinking_switch.o
 .ARM.attributes
                0x00000037       0x37 out/lpc4337_m4\libbase.a(cr_startup_lpc43xx.o)
 .ARM.attributes
                0x0000006e       0x37 out/lpc4337_m4\libbase.a(sysinit.o)
 .ARM.attributes
                0x000000a5       0x37 out/lpc4337_m4\libdrivers_devices.a(switch.o)
 .ARM.attributes
                0x000000dc       0x37 out/lpc4337_m4\libdrivers_devices.a(led.o)
 .ARM.attributes
                0x00000113       0x37 out/lpc4337_m4\libdrivers_devices.a(delay.o)
 .ARM.attributes
                0x0000014a       0x37 out/lpc4337_m4\libdrivers_microcontroller.a(gpio.o)
 .ARM.attributes
                0x00000181       0x37 out/lpc4337_m4\libdrivers_microcontroller.a(systemclock.o)
 .ARM.attributes
                0x000001b8       0x37 out/lpc4337_m4\libchip.a(gpio_18xx_43xx.o)
 .ARM.attributes
                0x000001ef       0x37 out/lpc4337_m4\libchip.a(chip_18xx_43xx.o)
 .ARM.attributes
                0x00000226       0x37 out/lpc4337_m4\libchip.a(clock_18xx_43xx.o)
 .ARM.attributes
                0x0000025d       0x37 out/lpc4337_m4\libchip.a(fpu_init.o)
 .ARM.attributes
                0x00000294       0x37 out/lpc4337_m4\libchip.a(sysinit_18xx_43xx.o)
 .ARM.attributes
                0x000002cb       0x32 c:/nxp/mcuxpressoide_10.3.1_2233/ide/plugins/com.nxp.mcuxpresso.tools.win32_10.3.0.201811011841/tools/bin/../lib/gcc/arm-none-eabi/7.3.1/../../../../arm-none-eabi/lib/thumb/v7e-m/fpv4-sp/softfp\libc.a(lib_a-memset.o)

.debug_frame    0x00000000     0x1284
 .debug_frame   0x00000000       0x58 out/lpc4337_m4/obj/blinking_switch.o
 .debug_frame   0x00000058      0x170 out/lpc4337_m4\libbase.a(cr_startup_lpc43xx.o)
 .debug_frame   0x000001c8       0x34 out/lpc4337_m4\libbase.a(sysinit.o)
 .debug_frame   0x000001fc       0x9c out/lpc4337_m4\libdrivers_devices.a(switch.o)
 .debug_frame   0x00000298       0xd8 out/lpc4337_m4\libdrivers_devices.a(led.o)
 .debug_frame   0x00000370       0x84 out/lpc4337_m4\libdrivers_devices.a(delay.o)
 .debug_frame   0x000003f4      0x560 out/lpc4337_m4\libdrivers_microcontroller.a(gpio.o)
 .debug_frame   0x00000954       0x2c out/lpc4337_m4\libdrivers_microcontroller.a(systemclock.o)
 .debug_frame   0x00000980      0x198 out/lpc4337_m4\libchip.a(gpio_18xx_43xx.o)
 .debug_frame   0x00000b18       0xa0 out/lpc4337_m4\libchip.a(chip_18xx_43xx.o)
 .debug_frame   0x00000bb8      0x568 out/lpc4337_m4\libchip.a(clock_18xx_43xx.o)
 .debug_frame   0x00001120       0x38 out/lpc4337_m4\libchip.a(fpu_init.o)
 .debug_frame   0x00001158       0xf4 out/lpc4337_m4\libchip.a(sysinit_18xx_43xx.o)
 .debug_frame   0x0000124c       0x38 c:/nxp/mcuxpressoide_10.3.1_2233/ide/plugins/com.nxp.mcuxpresso.tools.win32_10.3.0.201811011841/tools/bin/../lib/gcc/arm-none-eabi/7.3.1/../../../../arm-none-eabi/lib/thumb/v7e-m/fpv4-sp/softfp\libc.a(lib_a-memset.o)
